:100000006AC0000031C500005CC500008CC0000063
:100010008AC0000088C0000086C0000084C00000C4
:1000200082C0000080C000007EC000007CC00000D4
:100030007AC0000078C0000076C0000074C00000E4
:1000400072C0000070C000006FC000006CC00000F3
:100050006AC0000068C0000066C0000064C0000004
:1000600062C0000060C00000B518B518F818E118AB
:10007000F318B518B518F818E118000000002400AE
:1000800027002A0000000000250028002B000000A7
:1000900000002300260029000404040404040404CE
:1000A0000202020202020303030303030102040823
:1000B00010204080010204081020010204081020D2
:1000C0000000000700020100000304060000000019
:1000D00000000000160211241FBECFEFD8E0DEBFE3
:1000E000CDBF11E0A0E0B1E0E0ECF0E402C005908B
:1000F0000D92A03AB107D9F722E0A0EAB1E001C021
:100100001D92A93CB207E1F710E0CBE6D0E004C0B5
:100110002197FE010E94DC1ACA36D107C9F70E9456
:100120008C0E0C945E206CCF1F920F920FB60F9224
:1001300011242F933F934F938F939F93EF93FF93AC
:100140004091C600E0912002F091210231969F017A
:100150002F773070319780912202909123022817D7
:10016000390739F0E056FE4F408330932102209347
:100170002002FF91EF919F918F914F913F912F918D
:100180000F900FBE0F901F9018958F92AF92CF9245
:10019000DF92EF92FF920F931F93DF93CF93CDB730
:1001A000DEB7FC0184E091E09183808373836283F6
:1001B000558344833783268311870087F386E2863D
:1001C000D586C486A68687868D85808B8E85818B15
:1001D0008F85828BCF91DF911F910F91FF90EF90D0
:1001E000DF90CF90AF908F9008958F92AF92CF9283
:1001F000DF92EF92FF920F931F93DF93CF93CDB7D0
:10020000DEB7FC0184E091E0918380837383628395
:10021000558344833783268311870087F386E286DC
:10022000D586C486A68687868D85808B8E85818BB4
:100230008F85828BCF91DF911F910F91FF90EF906F
:10024000DF90CF90AF908F900895CF93DF93EC0124
:100250009A01AB01E885F985203081EE380780E00E
:10026000480780E0580709F445C081E090E00A881B
:1002700002C0880F991F0A94E2F7808360E079E05A
:100280008DE390E00E94BA1A215030404040504027
:100290005695479537952795EC81FD813083EE8102
:1002A000FF812083EA85FB85208141E050E0CA017F
:1002B0000E8402C0880F991F0A94E2F7282B20832E
:1002C000EA85FB852081CA010F8402C0880F991F2F
:1002D0000A94E2F7282B2083EA85FB858081088831
:1002E00002C0440F551F0A94E2F7842B8083DF91EC
:1002F000CF910895108220E130E0CECFFC01A2859D
:10030000B3854C9121E030E0C901068402C0880F1A
:10031000991F0A94E2F7809584238C93A285B38574
:100320004C91C901078402C0880F991F0A94E2F713
:10033000809584238C93A285B3858C91008802C01C
:10034000220F331F0A94E2F7209528232C93089557
:10035000DC011296ED91FC911397E058FF4F21912B
:10036000319180819181281B390B2F773070C90121
:100370000895DC011296ED91FC911397EE57FF4F13
:100380002081318192918291E058F0408217930749
:1003900019F42FEF3FEF05C0E20FF31F8081282FE4
:1003A00030E0C9010895DC011296ED91FC9113979C
:1003B000DF01AE57BF4F2D913C911197E058FF4F91
:1003C00080819181E058F0408217930719F42FEF54
:1003D0003FEF0BC0E20FF31F80812F5F3F4F2F775E
:1003E00030702D933C93282F30E0C9010895DC0133
:1003F0001296ED91FC911397EE57FF4F80819181FA
:10040000929382930895FC01A085B18521898C91F6
:1004100090E0022E02C0959587950A94E2F780FF3E
:10042000F6CF0484F585E02D6083089584E091E0A3
:10043000909325028093240280EA91E09093270212
:100440008093260285EC90E0909329028093280205
:1004500084EC90E090932B0280932A0280EC90E051
:1004600090932D0280932C0281EC90E090932F02C8
:1004700080932E0286EC90E09093310280933002BC
:1004800084E08093320283E08093330287E080939C
:10049000340285E08093350281E08093360208952E
:1004A0000F931F93CF93DF938C01EB0109C021962B
:1004B000D801ED91FC910190F081E02DC8010995E2
:1004C00068816623A1F7DF91CF911F910F91089565
:1004D000EF92FF920F931F93CF93DF938C017B01D9
:1004E000EA010CC0D7016D917D01D801ED91FC911D
:1004F0000190F081E02DC80109952197209791F78F
:10050000DF91CF911F910F91FF90EF900895DC0143
:10051000ED91FC910280F381E02D09950895CF9231
:10052000DF92EF92FF920F931F93CF93DF936C01B3
:100530007B01C0E0D0E00DC0D601ED91FC910081BF
:100540001181C701BE0118D3682FC601F8010995B2
:100550002196F70184819581C817D90768F3DF9147
:10056000CF911F910F91FF90EF90DF90CF90089562
:100570002F923F924F925F926F927F928F929F92B3
:10058000AF92BF92CF92DF92EF92FF920F931F93A1
:10059000DF93CF93CDB7DEB7A0970FB6F894DEBF49
:1005A0000FBECDBF1C016A017B01411551056105DC
:1005B000710541F440E350E060E070E020E030E09D
:1005C0009BD053C0882499245401422E552466247C
:1005D000772401E010E00C0F1D1F080D191DC70145
:1005E000B601A30192010E94BA1AF801608308942F
:1005F000811C911CA11CB11CC701B601A301920171
:100600000E94BA1AC901DA016C017D01C114D1043A
:10061000E104F104F1F681E0E82EF12CEC0EFD1E70
:10062000E80CF91C3E010894611C711CD501C40141
:100630000197A109B1096C01C818D90813C0F601C6
:10064000EE0DFF1D40814A3010F4405D01C0495C51
:1006500050E060E070E0C10120E030E04DD008944F
:10066000E108F1086E147F0451F7A0960FB6F894D4
:10067000DEBF0FBECDBFCF91DF911F910F91FF90D5
:10068000EF90DF90CF90BF90AF909F908F907F9032
:100690006F905F904F903F902F900895DC0121154F
:1006A000310541F4ED91FC910190F081E02D642F32
:1006B000099508955DCFEF92FF920F931F939A01D2
:1006C0007B0100E010E0B801A701E8DF1F910F9166
:1006D000FF90EF900895EF92FF920F931F939A016E
:1006E000E62EFF2400E010E0B801A701D7DF1F913C
:1006F0000F91FF90EF900895EF92FF920F931F9349
:10070000CF93DF93EC017A018B012115310541F480
:10071000E881F9810190F081E02D642F099519C0DD
:100720002A303105A9F477FF0FC04DE250E060E0B8
:1007300070E020E030E0E0DF10950095F094E09468
:10074000E11CF11C011D111DCE01B801A7012AE019
:100750000FDFDF91CF911F910F91FF90EF900895E0
:10076000EF92FF920F931F937B019A010027F7FCF2
:100770000095102FB801A701BFDF1F910F91FF90C7
:10078000EF900895EF92FF920F931F939A01E62E38
:10079000FF2400E010E0B801A701AEDF1F910F9128
:1007A000FF90EF9008950F931F938C014DE050E060
:1007B00060E070E020E030E09FDFC8014AE050E0F8
:1007C00060E070E020E030E097DF1F910F91089526
:1007D0000F931F938C0162DFC801E5DF1F910F911A
:1007E0000895CF92DF92EF92FF920F931F938C01A7
:1007F0009A016B01EE24FF24B701A6014FDFC80167
:10080000D2DF1F910F91FF90EF90DF90CF9008956E
:10081000CF92DF92EF92FF920F931F938C019A0178
:10082000C62EDD24EE24FF24B701A60137DFC80160
:10083000BADF1F910F91FF90EF90DF90CF90089556
:100840000F931F938C0163DEC801ADDF1F910F91E1
:1008500008950F931F938C0162DEC801A4DF1F91DE
:100860000F9108950F931F938C0146DFC8019BDF02
:100870001F910F910895CF92DF92EF92FF920F9305
:100880001F938C016B019A01EE24D7FCE094FE2C9F
:10089000B701A60131DFC80186DF1F910F91FF90DC
:1008A000EF90DF90CF900895CF92DF92EF92FF927A
:1008B0000F931F938C019A01C62EDD24EE24FF2492
:1008C000B701A60119DFC8016EDF1F910F91FF90DC
:1008D000EF90DF90CF9008959F92AF92BF92CF920A
:1008E000DF92EF92FF920F931F93CF93DF93EC0170
:1008F0007A018B01922ECB01BA0120E030E040E07A
:1009000050E00E94471B882364F4CE014DE250E082
:1009100060E070E020E030E0EFDE17FB109517F9A3
:10092000109520E030E040E05FE3AA240BC0CA014C
:10093000B90120E030E040E251E40E944B1B9B01F2
:10094000AC01A394A91498F3C801B7010E94E31A5B
:100950005B016C010E94B81B7B018C01CE01B801C8
:10096000A7012AE030E09ADE992021F0CE0164E26E
:1009700071E0CDDDC801B7010E94E41B9B01AC0111
:10098000C601B5010E94E21A21C020E030E040E239
:1009900051E40E94961C7B018C010E94B31B5B01F9
:1009A0006C01CC24B7FCC094DC2CCE01B601A501AF
:1009B0002AE030E0A1DEC601B5010E94E61B9B01E2
:1009C000AC01C801B7010E94E21A9A949920E9F695
:1009D000DF91CF911F910F91FF90EF90DF90CF901B
:1009E000BF90AF909F90089577CF0F931F938C0186
:1009F00073DFC801D8DE1F910F910895823000F592
:100A0000E82FF0E0EE0FFF1FE95CFD4F718360837C
:100A1000882319F08130A1F408C0809169008C7F8F
:100A2000842B80936900E89A089580916900440FAF
:100A3000551F440F551F837F842B80936900E99ACB
:100A40000895823080F4882319F0813021F402C0A7
:100A5000E89801C0E998E82FF0E0EE0FFF1FE95C8D
:100A6000FD4F1182108208951F920F920FB60F92C0
:100A700011242F933F934F935F936F937F938F93A3
:100A80009F93AF93BF93EF93FF9380913702909121
:100A90003802892B29F0E0913702F091380209954C
:100AA000FF91EF91BF91AF919F918F917F916F9146
:100AB0005F914F913F912F910F900FBE0F901F901C
:100AC00018951F920F920FB60F9211242F933F93F8
:100AD0004F935F936F937F938F939F93AF93BF9346
:100AE000EF93FF938091390290913A02892B29F07C
:100AF000E0913902F0913A020995FF91EF91BF918F
:100B0000AF919F918F917F916F915F914F913F91A5
:100B10002F910F900FBE0F901F901895FC01019020
:100B2000F081E02DE60FF71F80810895DC01ED9143
:100B3000FC911197309751F014968D919C911597D7
:100B40006817790718F4E60FF71F40830895FC0132
:100B50009B01848195816817790728F460817181F0
:100B60006115710529F410923B026BE372E002C03B
:100B7000620F731FCB010895FC010190F081E02DFD
:100B8000E60FF71F80810895FC01808191810C940C
:100B9000D91E0F931F93CF93DF93FC018B01411557
:100BA0005105A1F06115710589F084819581EA01F3
:100BB00021978C179D0708F4EC0160817181C801B1
:100BC000AE010E945B1FC00FD11F1882DF91CF9131
:100BD0001F910F9108950F931F93CF93DF93FC0103
:100BE0008B0141155105A1F06115710589F08481D2
:100BF0009581EA0121978C179D0708F4EC0160812B
:100C00007181C801AE010E945B1FC00FD11F188205
:100C1000DF91CF911F910F9108950F931F938C0136
:100C2000FC01808191810E94911DF8011382128242
:100C3000158214821F910F910895FC01DB01149617
:100C40002D913C91159784819581821B930B84177C
:100C5000950710F480E00895808191816D917C91D9
:100C6000840F951FA9010E944D1F9C0180E0232B3A
:100C700009F481E00895FC01DB012481358114969B
:100C80008D919C9115972817390710F480E00895ED
:100C9000CF0140E050E0D1CFDF92EF92FF920F936F
:100CA0001F93CF93DF93EC018C819D8148175907E7
:100CB000B8F47A010894E11CF11CE881F981EE0D89
:100CC000FF1DD080108208811981C80170E00E9448
:100CD0006A1F9C010E0D1F1DF801D082009719F4A8
:100CE000EFEFFFEF05C088819981F901E81BF90B4F
:100CF000CF01DF91CF911F910F91FF90EF90DF9087
:100D00000895FC014481558141505040C5CFCF9397
:100D1000DF93FC01DB01848195814817590760F45A
:100D2000C081D1816D917C91CE01840F951F0E946D
:100D3000751F9C01009719F42FEF3FEF02C02C1B89
:100D40003D0BC901DF91CF91089540E050E0DFCF26
:100D5000CF93DF93FC01848195814817590758F49C
:100D6000C081D181CE01840F951F70E00E94321F97
:100D70009C01009719F42FEF3FEF02C02C1B3D0B95
:100D8000C901DF91CF91089540E050E0E1CFDC014F
:100D9000FB0114962D913C9115978481958128171C
:100DA000390711F080E00895608171818D919C91E7
:100DB0000E943D1F9C0180E0232B09F481E00895EF
:100DC000FC01DB012481358114968D919C9115974E
:100DD0002817390710F480E00895281B390B80810B
:100DE00091816D917C91820F931F0E943D1F9C0108
:100DF00080E0232B09F481E00895DC01FB01608190
:100E000071818D919C910E943D1F292F332727FDD1
:100E10003095209530952227330F221F3327C901A3
:100E20000895DC01FB01608171818D919C910E948C
:100E30003D1F40E050E01816190614F041E050E064
:100E4000CA010895DC01FB01608171818D919C9143
:100E50000E943D1F40E050E01816190614F441E0CE
:100E600050E0CA010895DC01FB01608171818D9120
:100E70009C910E943D1F292F332727FD3095222763
:100E8000330F221F3327C9010895DC01FB0114969B
:100E90002D913C911597848195812817390751F43C
:100EA000608171818D919C910E943D1F9C0180E029
:100EB000232B09F081E090E00895DC01FB011496FA
:100EC0002D913C911597848195812817390711F050
:100ED00080E00BC0608171818D919C910E943D1FCB
:100EE0009C0180E0232B09F481E090E00895FC014F
:100EF000DB016D917C91808191810C943D1F0F935A
:100F00001F93CF93DF93EC018B01FB01648175810B
:100F10008C819D81680F791F7D836C838A819B8181
:100F200086179707B8F46F5F7F4F888199810E9479
:100F30001A1E4C815D81009729F0998388835B8319
:100F40004A8308C0F80184819581481B590B5D8351
:100F50004C8307C0F80160817181888199810E946A
:100F6000271FCE01DF91CF911F910F910895C7CF19
:100F7000CF93DF93EC01CB017B836A8301960E94C0
:100F8000F91C99838883009721F41B821A821D82A1
:100F90001C82DF91CF9108950F931F93CF93DF931E
:100FA000EC018B018617970701F1FB012481358144
:100FB0008C819D818217930748F4888199810E94D2
:100FC000911DF80164817581CE01D2DF28813981BC
:100FD0002115310551F0F801848195819D838C8321
:100FE00060817181C9010E94461FCE01DF91CF91BE
:100FF0001F910F9108951F93CF93DF93EC01162F4C
:1010000081E090E09D838C83CE0161E070E0B0DFF1
:10101000E881F981309721F01083E881F98111820C
:10102000DF91CF911F9108951F93CF93DF93EC0130
:10103000162F81E090E09D838C83CE0161E070E00B
:1010400097DFE881F981309721F01083E881F981F9
:101050001182DF91CF911F9108951F93CF93DF935A
:10106000EC01162F81E090E09D838C83CE0161E03E
:1010700070E07EDFE881F981309721F01083E8810C
:10108000F9811182DF91CF911F9108951F93CF9322
:10109000DF93EC01162F81E090E09D838C83CE01DD
:1010A00061E070E065DFE881F981309721F010831D
:1010B000E881F9811182DF91CF911F9108950F93FB
:1010C0001F93CF93DF938C01EB016C817D81FC0139
:1010D000758364834DDFF80180819181009721F051
:1010E000688179810E94461FDF91CF911F910F91F6
:1010F00008950F931F93CF93DF938C01EB016C81C5
:101100007D81FC017583648333DFF80180819181E7
:10111000009721F0688179810E94461FDF91CF916D
:101120001F910F910895EF92FF920F931F93DF93FA
:10113000CF93CDB7DEB7A1970FB6F894DEBF0FBE41
:10114000CDBF8C01CB01BA017E010894E11CF11CDA
:10115000A7012AE030E00E94D01FF7010190002093
:10116000E9F73197EE19FF09D8011596FC93EE9334
:101170001497C801BF01FCDEF801808191810097BE
:1011800019F0B7010E94461FA1960FB6F894DEBF72
:101190000FBECDBFCF91DF911F910F91FF90EF90C8
:1011A0000895EF92FF920F931F93DF93CF93CDB7E4
:1011B000DEB7A1970FB6F894DEBF0FBECDBF8C018E
:1011C000CB01BA017E010894E11CF11CA7012AE0C1
:1011D00030E00E94D01FF70101900020E9F731971D
:1011E000EE19FF09D8011596FC93EE931497C801E8
:1011F000BF01BEDEF80180819181009719F0B7012F
:101200000E94461FA1960FB6F894DEBF0FBECDBF59
:10121000CF91DF911F910F91FF90EF900895EF9282
:10122000FF920F931F93DF93CF93CDB7DEB7A197B4
:101230000FB6F894DEBF0FBECDBF8C019A0180E0DF
:1012400090E07E010894E11CF11CA7010E94D01FD0
:10125000F70101900020E9F73197EE19FF09D80155
:101260001596FC93EE931497C801BF0181DEF80137
:1012700080819181009719F0B7010E94461FA196C5
:101280000FB6F894DEBF0FBECDBFCF91DF911F9197
:101290000F91FF90EF900895EF92FF920F931F939D
:1012A000DF93CF93CDB7DEB7A1970FB6F894DEBF2B
:1012B0000FBECDBF8C019A0180E090E07E010894C2
:1012C000E11CF11CA7010E94D01FF7010190002032
:1012D000E9F73197EE19FF09D8011596FC93EE93C3
:1012E0001497C801BF0144DEF80180819181009705
:1012F00019F0B7010E94461FA1960FB6F894DEBF01
:101300000FBECDBFCF91DF911F910F91FF90EF9056
:1013100008950F931F93CF93DF938C01EB01611519
:10132000710511F4C0E3D1E0FE0101900020E9F75E
:101330003197EC1BFD0BD8011596FC93EE93149797
:10134000C801BF0115DEF80180819181009719F075
:10135000BE010E94461FDF91CF911F910F9108950A
:10136000AF92BF92CF92DF92EF92FF920F931F93B3
:10137000CF93DF93B82EA92E6B01C82FD92FFB0175
:1013800060817181CE01C5DFEE24FF240EC008818B
:1013900019810E0D1F1DF801808190E00E940F1F22
:1013A000F80180830894E11CF11CF6018481958189
:1013B000E816F90660F38B2D9A2DDF91CF911F91DE
:1013C0000F91FF90EF90DF90CF90BF90AF90089576
:1013D000AF92BF92CF92DF92EF92FF920F931F9343
:1013E000CF93DF93B82EA92E6B01C82FD92FFB0105
:1013F00060817181CE018DDFEE24FF240EC0088153
:1014000019810E0D1F1DF801808190E00E94071FB9
:10141000F80180830894E11CF11CF6018481958118
:10142000E816F90660F38B2D9A2DDF91CF911F916D
:101430000F91FF90EF90DF90CF90BF90AF90089505
:10144000EF92FF920F931F93DF93CF93CDB7DEB749
:101450002C970FB6F894DEBF0FBECDBFFC017B0109
:101460008617970711F401E025C024813581DB013F
:1014700014968D919C9115972817390711F000E06B
:1014800019C0CE010196BF01A3DF09811A81CE01E7
:101490000796B7019DDF6F817885C8010E943D1FC7
:1014A00000E0009709F401E0CE010796B6DBCE011B
:1014B0000196B3DB802F2C960FB6F894DEBF0FBEDB
:1014C000CDBFCF91DF911F910F91FF90EF900895C5
:1014D000CF92DF92EF92FF921F93CF93DF936C0135
:1014E0007B01B9012417350710F4BA01A901D7010E
:1014F00014968D919C911597EB018617970708F428
:10150000EC01D701ED91FC911197EC0FFD1F1081BB
:1015100010826D917C91640F751FC601FADED701B0
:10152000ED91FC91EC0FFD1F1083C601DF91CF916F
:101530001F91FF90EF90DF90CF9008950F931F932E
:101540008C01FB0124813581C3DFC8011F910F91FC
:1015500008958F929F92AF92BF92CF92DF92EF92B7
:10156000FF920F931F93DF93CF9300D000D000D052
:10157000CDB7DEB75C016B01DB0114968D919C91B8
:101580001597009789F101974817590768F1F501F8
:10159000848195814817590738F5ED91FC910081B8
:1015A0007A014E010894811C911C1CC0D501ED915B
:1015B000FC91EE0DFF1D8081801789F4F6012481D6
:1015C00035812E0D3F1DC401B501A70181DFC40186
:1015D000B601DDDB182FC40120DB112341F4089490
:1015E000E108F108F7FEE2CFEE24EA94FE2CC701F1
:1015F00026960FB6F894DEBF0FBECDBFCF91DF9118
:101600001F910F91FF90EF90DF90CF90BF90AF9020
:101610009F908F900895FC01DB01448155811496C1
:101620008D919C911597481B590BCF0192CFAF928A
:10163000BF92CF92DF92EF92FF920F931F93DF93AF
:10164000CF9300D000D000D0CDB7DEB75C018B01C6
:10165000DB016D917C916115710519F4B8012FDDE5
:101660003BC0CE01019655DEF801E480F580CC2424
:10167000DD240EC0D801ED91FC91EC0DFD1D8081A3
:1016800090E00E94FF1E892B31F00894C11CD11CF0
:10169000CE14DF0478F3ED80FE800BC0D801ED910D
:1016A000FC91EE0DFF1D808190E00E94FF1E892BB2
:1016B00031F00894E108F108CE14DF0478F30894BF
:1016C000E11CF11CC5018E010F5F1F4FB801A6017F
:1016D0009701FEDEC801A1DAC50126960FB6F8947F
:1016E000DEBF0FBECDBFCF91DF911F910F91FF9055
:1016F000EF90DF90CF90BF90AF9008952F923F92E0
:101700004F925F926F927F928F929F92AF92BF9211
:10171000CF92DF92EF92FF920F931F93DF93CF93BD
:10172000CDB7DEB768970FB6F894DEBF0FBECDBF5A
:101730003C01FB012A01190160817181611571056C
:1017400019F4BF01BCDC4CC07E010894E11CF11C03
:10175000C701DFDD8E01095F1F4FC80160E371E043
:10176000D8DDD02EC12E3DE0832E912C8C0E9D1EF7
:1017700023E1A22EB12CAC0EBD1E1DC0C401B701C9
:1017800040E050E09801A4DE8D2D9C2DB401B7DB24
:10179000C40143DA8D2D9C2DB101B1DBF2014481EE
:1017A0005581400F511FC501B701C8DEC701B50102
:1017B000F3DBC50132DAC701B201C7DA8C01FFEFF2
:1017C0008F3F9F07D9F68D2D9C2DB70198DBC30164
:1017D0006D2D7C2D74DC8D2D9C2D1FDAC7011DDA3B
:1017E000C30168960FB6F894DEBF0FBECDBFCF9190
:1017F000DF911F910F91FF90EF90DF90CF90BF90FE
:10180000AF909F908F907F906F905F904F903F90A0
:101810002F900895EF92FF920F931F93DF93CF9332
:1018200000D000D000D0CDB7DEB77C01FB01142F73
:10183000022F608171816115710519F4BF013FDCD0
:1018400016C0CE01019665DD89819A8101C00083B1
:10185000612F70E00E94321FFC010097C1F7C701A1
:101860008E010F5F1F4FB8012ADCC801D6D9C7010E
:1018700026960FB6F894DEBF0FBECDBFCF91DF9195
:101880001F910F91FF90EF9008950F931F93CF93A7
:10189000DF938C01EB016115710511F4C0E3D1E018
:1018A000FE0101900020E9F73197EC1BFD0BD801F8
:1018B0001596FC93EE931497C801BF0159DBF8010C
:1018C00080819181009719F0BE010E94461FDF912F
:1018D000CF911F910F910895EF92FF920F931F9355
:1018E000DF93CF93CDB7DEB7A1970FB6F894DEBFE5
:1018F0000FBECDBF8C01CB01BA017E010894E11C63
:10190000F11CA7010E94A31FF70101900020E9F735
:101910003197EE19FF09D8011596FC93EE931497B1
:10192000C801BF0125DBF80180819181009719F082
:10193000B7010E94461FA1960FB6F894DEBF0FBEF6
:10194000CDBFCF91DF911F910F91FF90EF90089540
:10195000EF92FF920F931F93DF93CF93CDB7DEB734
:10196000A1970FB6F894DEBF0FBECDBF8C01CB019F
:10197000BA017E010894E11CF11CA7010E94A31F7B
:10198000F70101900020E9F73197EE19FF09D8011E
:101990001596FC93EE931497C801BF01E9DAF8019C
:1019A00080819181009719F0B7010E94461FA1968E
:1019B0000FB6F894DEBF0FBECDBFCF91DF911F9160
:1019C0000F91FF90EF900895EF92FF920F931F9366
:1019D000DF93CF93CDB7DEB7A1970FB6F894DEBFF4
:1019E0000FBECDBF8C01CB017E010894E11CF11C20
:1019F000B7010E948F1FF70101900020E9F731978E
:101A0000EE19FF09D8011596FC93EE931497C801BF
:101A1000BF01AEDAF80180819181009719F0B7011A
:101A20000E94461FA1960FB6F894DEBF0FBECDBF31
:101A3000CF91DF911F910F91FF90EF900895EF925A
:101A4000FF920F931F93DF93CF93CDB7DEB7A1978C
:101A50000FB6F894DEBF0FBECDBF8C01CB017E0167
:101A60000894E11CF11CB7010E948F1FF70101903F
:101A70000020E9F73197EE19FF09D8011596FC937C
:101A8000EE931497C801BF0173DAF8018081918148
:101A9000009719F0B7010E94461FA1960FB6F8945F
:101AA000DEBF0FBECDBFCF91DF911F910F91FF9091
:101AB000EF900895482F50E0CA0184559F4FFC01D4
:101AC000249148565F4FFA0184918823C1F0E82F92
:101AD000F0E0EE0FFF1FE658FF4FA591B49166238B
:101AE00041F49FB7F8948C91209582238C939FBFEB
:101AF00008959FB7F8948C91822B8C939FBF089583
:101B0000833071F0843028F48130A1F0823021F5E7
:101B100014C08630B1F08730D1F08430E9F404C0CD
:101B2000809180008F7703C0809180008F7D8093AB
:101B30008000089584B58F7702C084B58F7D84BD01
:101B400008958091B0008F778093B00008958091C0
:101B5000B0008F7D8093B0000895FF920F931F9384
:101B6000F62E482F50E0CA0180549F4FFC0124916B
:101B7000CA0184559F4FFC01149148565F4FFA01EA
:101B800004910023D1F0222311F0822FB9DFE02F3E
:101B9000F0E0EE0FFF1FEC57FF4FA591B491FF202F
:101BA00031F49FB7F8948C911095812304C09FB7AE
:101BB000F8948C91812B8C939FBF1F910F91FF9074
:101BC00008950F931F93482F50E0CA0180549F4FF0
:101BD000FC012491CA0184559F4FFC010491485691
:101BE0005F4FFA011491112319F420E030E014C082
:101BF000222311F0822F84DF812F90E0880F991F1C
:101C000082579F4FFC01A591B4918C9120E030E068
:101C1000802311F021E030E0C9011F910F91089558
:101C2000CF93DF931F92CDB7DEB768E371E084E214
:101C300092E00E9420041982BE016F5F7F4F809165
:101C40003C0290913D023BD10F90DF91CF910895DE
:101C50006FEF7FEF80913C0290913D02E1D18130A6
:101C6000B9F76BE471E084E292E00E94200461E045
:101C70008AE073DFEDCF6FEF7FEF80913C029091B0
:101C80003D02CED18130B9F768E671E084E292E09E
:101C90000E94200460E08AE060DFEDCF0895FFCF6E
:101CA000EF92FF920F9340E855E260E070E084E22B
:101CB00092E00E94250161E08AE0FCDEE12CF12C3B
:101CC00000E020E030E040E850E066E871E088E2C3
:101CD0009EE048D320E030E040E850E06CE871E05E
:101CE0008BE39EE03FD343E060E081E0C1D090937E
:101CF0003D0280933C02892B51F041E050E060E1CD
:101D00007EE080E00F91FF90EF900C94FE040F9125
:101D1000FF90EF9008950895C3DF37D480E090E0FE
:101D200008950FB6F8940F92FC01928D0F900FBE9C
:101D300081E0911180E00895FC01CB01448D4423A2
:101D4000A1F050E026813781240F351F3783268389
:101D5000648175812617370720F020813181378310
:101D60002683668177810C94171F0895EF92FF9266
:101D70001F93CF93DF93EC010FB6F8940F921E8D53
:101D80007C0181E1E80EF11C11164CF4898988234D
:101D900031F0C701D4D68111BAD71150F5CF8FEFEA
:101DA0008E8F0F900FBE0FB6F8940F921D8D7E018F
:101DB00088E0E80EF11C11164CF48885882331F078
:101DC000C701BDD68111A3D71150F5CF8FEF8D8FED
:101DD0000F900FBEDF91CF911F91FF90EF9008956C
:101DE000CF93DF93009709F43FC0FC01238D22239A
:101DF00009F43AC0EC010FB6F8940F92408151817A
:101E0000838D748D9A01879F200D311D1124358398
:101E10002483128E5383428390E00197789F900130
:101E2000799F300D1124CA01820F931F97838683F7
:101E30008FEF858F868F61110BC08085882381F09D
:101E4000CF0108967CD6882359F00E94621A08C0F8
:101E5000CF0108960E944D19CE0141960E944D195E
:101E60000F900FBE81E001C080E0DF91CF91089517
:101E70000F931F93CF93DF93811103C0C0E0D0E095
:101E800018C0162F082F869FC00111244F960E945C
:101E90003019EC01009791F3111103C099838883E5
:101EA00003C04F96998388830B8F1C8F61E0CE010E
:101EB00097DFCE01DF91CF911F910F910895EF929F
:101EC000FF921F93CF93DF93EC018A8D9B8D89172F
:101ED000E0F47B011E8D8F5F8A8F1F3F79F4898923
:101EE000882389F0CE0141962AD6882361F0E11437
:101EF000F10449F081E0F701808308C09DD31817F1
:101F000010F41F5F1E8F81E001C080E0DF91CF9150
:101F10001F91FF90EF900895AF92BF92CF92DF9202
:101F2000FF920F931F93CF93DF9300D000D01F92A7
:101F3000CDB7DEB78C016B015D834C8380E0580127
:101F400091E1A90EB11C0FB6F8940F92F801F28C32
:101F5000FF2099F0B601C801EFDEFA94F801F28E85
:101F60008085882331F0C8010896E9D581110E9447
:101F7000621A0F900FBE81E044C02C813D81232B5B
:101F800019F40F900FBE3CC0811103C0CE01019621
:101F900082D60F900FBE40D30FB6F8940F92F8017F
:101FA000858D8F3F09F4158EF801868D8F3F09F4DA
:101FB000168E0F900FBEBE016C5F7F4FCE01019653
:101FC00075D6811116C0C801ACDE882371F06C8112
:101FD0007D81C5015ED5C801C9DE2FD4882311F0EB
:101FE00081E0B1CF0E94621AFBCFC801BFDE25D4C9
:101FF000F7CFC801BBDE21D4C80193DE882381F36B
:1020000080E00F900F900F900F900F90DF91CF9185
:102010001F910F91FF90DF90CF90BF90AF900895E8
:10202000CF92DF92FF920F931F93CF93DF9300D055
:1020300000D01F92CDB7DEB78C017D836C83F12C6D
:1020400090E0680181E1C80ED11C0FB6F8940F92A0
:10205000D8015A968C915A978823D9F081505A9674
:102060008C935A978D919C91892B21F42DD7F8014F
:1020700095838483D80118968C91882331F0C80108
:1020800008965DD581110E94621A0F900FBE81E003
:102090006CC02C813D81232B09F464C0911103C0D5
:1020A000CE010196F8D50F900FBEB6D20FB6F894B8
:1020B0000F92F801858D8F3F09F4158ED8015E9639
:1020C0008C915E978F3F11F45E961C920F900FBE1D
:1020D000BE016C5F7F4FCE010196E8D5811124C00F
:1020E000C8011FDE8823E1F0F80180819181892BEE
:1020F00049F40FB6F8940F92848195810CD6F82E8E
:102100000F900FBE6C817D81C601C3D4C8012EDE45
:1021100094D3882311F091E098CF0E94621AFBCFEC
:10212000C80124DE8AD3F7CFC80120DE86D3C801D8
:10213000F8DD882381F3FF20B9F00FB6F8940F92F1
:10214000F8018189882339F00688F789E02D80819C
:1021500064E0681B01C060E0D80114968D919C91E9
:10216000159754D60F900FBE80E00F900F900F90F0
:102170000F900F90DF91CF911F910F91FF90DF9003
:10218000CF900895CF93DF93EC010FB6F8940F92A0
:102190008D8D8F3F09F41D8E8E8D8F3F09F41E8E1D
:1021A0000F900FBE8A8D811103C0CE01419680D45D
:1021B000CE01DF91CF91DACDE0916B02F0916C020C
:1021C0008081811103C08FEF9FEF09C0E0916B0206
:1021D000F0916C020580F681E02D808191819093D1
:1021E0004202809341020895BF92CF92DF92EF9214
:1021F000FF920F931F93CF93DF93EC01B62EC09005
:102200004A02D0904B0200916B0210916C02E09058
:102210006902F0906A028091A3029091A402029652
:102220000E949719CF3F8FEFD807C1F5BB20B1F1BE
:10223000E0914E02F0914F02A091A302B091A4024E
:102240001596FC93EE931497A091A302B091A4026B
:102250008481958117969C938E9316978091A30203
:102260009091A402A481B581029613969C938E93BB
:1022700012978091A3029091A40202969583848381
:10228000E091A302F091A4028DE492E0938782870B
:1022900080914D028F5F80934D0229C0CC0DDD1DD2
:1022A000E091A302F091A402D383C2836091A302C0
:1022B0007091A4026E5F7F4FCC15DD0558F4C70105
:1022C000DF91CF911F910F91FF90EF90DF90CF9012
:1022D000BF90F5C7C801F3D78091410290914202A7
:1022E000C817D90720F4D0934202C0934102DF916E
:1022F000CF911F910F91FF90EF90DF90CF90BF9003
:102300000895CF93DF93809156028823F9F00FB69A
:10231000F8940F92E0915C02F0915D02C681D78142
:10232000CE0102960E94971980914C0281508093B1
:102330004C02809156028150809356020F900FBE3E
:102340008F89988D9CD7CE019AD7DDCFDF91CF9121
:102350000895D7DF80917F02823010F00E94621AC8
:1023600069D7F7CF5F926F927F928F929F92AF92D1
:10237000BF92CF92DF92EF92FF920F931F93CF9372
:10238000DF933C016B015A014901502ECA0168D705
:102390008C01892B09F45AC080E390E061D7EC01ED
:1023A000892BF1F080E3DE011D928A95E9F7188F01
:1023B0000F8BA50165EA70E0C8010E94201FB1E003
:1023C000AB1AB1088F89988DA80EB91EC114D1041B
:1023D000B9F0BE01675E7F4FF601C601409606C0A8
:1023E000C8014DD733C0E817F90749F09F01419163
:1023F000DB014D93BD01D9012C912111F4CF18A619
:10240000052D043008F003E00E8B09A76E01B2E041
:10241000CB0ED11CC6014FD7CE010C964CD7D98715
:10242000C88784E090E0801B91099D878C87DB8BB7
:10243000CA8BA401B301C5019DD799838883E11498
:10244000F10431F0F701D183C08302C08FEF8DC05A
:102450000FB6F8940F9280914C028F5F80934C02DC
:102460008091A3029091A402892B89F5D093A402B4
:10247000C093A30280914C02813009F038C08FE7ED
:1024800092E00BD788E892E008D781E992E005D77F
:102490008AE992E002D786E792E0FFD68DE692E0E5
:1024A000FCD680E692E0F9D687E592E0F6D68DE498
:1024B00092E0F3D686E792E090936C0280936B02F1
:1024C0008DE692E090936A028093690210C0809139
:1024D000480281110CC0E091A302F091A4029689F8
:1024E0008E89891720F0D093A402C093A302809113
:1024F00043028F5F80934302EE89809149028E17D9
:1025000010F4E093490289E08E9FF0011124E15814
:10251000FD4F0180F281E02DFD83EC832481358124
:102520003F832E83A481B5811396DC92CE921297BD
:10253000D582C482EE898E9FF0011124E158FD4FAF
:10254000FB87EA8780818F5F80830F900FBE809129
:102550004802882349F0E091A302F091A4029689F1
:102560008E89981708F4AED781E0DF91CF911F9143
:102570000F91FF90EF90DF90CF90BF90AF909F9022
:102580008F907F906F905F900895EF92FF920F93DE
:10259000CF93DF93CDB7DEB760970FB6F894DEBF69
:1025A0000FBECDBFA3E9B1E0FE013196BF018D9111
:1025B0008193882321F081E0A33AB807C1F78FE324
:1025C000E82E82E0F82E00E020E030E040EC50E021
:1025D00089EA91E1C7DE813089F40ED6813071F449
:1025E000F8942FEF3FEF3093420220934102809303
:1025F000480210924B0210924A0228D7809137016C
:1026000060960FB6F894DEBF0FBECDBFDF91CF91BD
:102610000F91FF90EF90089580913E028F5F80931D
:102620003E0208950FB6F8940F9280914A0290915D
:102630004B020F900FBE089580914C020895CF92E7
:10264000DF92EF92FF920F931F93CF93DF938091CE
:102650003E028111DFC0C0914A02D0914B026E014F
:102660008FEFC81AD80AD0924B02C0924A02C11406
:10267000D104B1F480916B0290916C0220916902B7
:1026800030916A0230936C0220936B0290936A023D
:1026900080936902809144028F5F809344028CDDB5
:1026A0008091410290914202C816D90608F49CC05C
:1026B00080E069E0E0916B02F0916C0290819111F1
:1026C00003C02FEF3FEF0FC0E0916B02F0916C025F
:1026D0000580F681E02D0680F781E02D228133818F
:1026E000C216D30628F430934202209341027DC0E3
:1026F000C285D3852481358146815781D9011596BC
:102700005C934E93149746815781DA0113963C935C
:102710002E9312979F012E5F3F4F09811A81021756
:10272000130711F45A8349831386128698819150B6
:102730009883A489B5891097F9F046855785008953
:102740001189EA011D830C8300891189E8015B83EB
:102750004A831196ED90FC901297AF01445F5F4F52
:10276000E416F50621F412961C930E931197158A20
:10277000148A9C9191509C93A689909149029A1732
:1027800010F4A09349026A9FD0011124A158BD4FB3
:1027900011960D90BC91A02DB583A48314964D91F4
:1027A0005C9115975783468314964D915C911597CC
:1027B000EA013B832A8315963C932E93149726892E
:1027C000629FD0011124A158BD4FB387A2879C916D
:1027D0009F5F9C93E091A302F091A40296899217C7
:1027E00008F068CF81E066CF80E0E091A302F0912D
:1027F000A402E689D9E0ED9FF0011124E158FD4FD4
:102800009081923008F081E090914502992361F027
:1028100081E00AC080914602909147020196909310
:1028200047028093460280E0DF91CF911F910F9184
:10283000FF90EF90DF90CF900895EF92FF920F936B
:102840001F93CF93DF930FB6F8940F9280913E02BF
:10285000815080933E0280913E02882311F080E0F7
:10286000B0C080914C028823D1F3E0906502F090D3
:102870006602E0E0F0E039E041E080916002882308
:1028800009F480C0D7011696ED91FC911797A489A1
:10289000B5896685778580899189EB019D838C83D5
:1028A00080899189EC017B836A83BF01645F7F4FDC
:1028B00011960D911C9112970617170721F4129685
:1028C0009C938E931197158A148A8C9181508C93C6
:1028D000A285B3858481958166817781EC017D83B2
:1028E0006C8366817781EB019B838A83CF0102969B
:1028F00011960D911C9112970817190721F4129641
:102900007C936E931197138612862C9121502C93F1
:10291000A689209149022A1710F4A09349023A9FF0
:10292000D0011124A158BD4F11960D90BC91A02D3E
:10293000B583A48314966D917C91159777836683F4
:1029400014966D917C911597EB019B838A83159664
:102950009C938E9314979689399FD0011124A15886
:10296000BD4FB387A2878C918F5F8C93A091A302F8
:10297000B091A40256968C91891708F07ECF4093AF
:1029800045027BCFEF2B09F017DCC0914602D091B6
:102990004702209759F011E052DE81111093450251
:1029A0002197D1F71092470210924602809145027A
:1029B000882309F454CF8091A3029091A40282D578
:1029C00081E00F900FBEDF91CF911F910F91FF908B
:1029D000EF90089580913E02882321F081E080935A
:1029E0004502089510924502A091A302B091A4025D
:1029F000E091A302F091A4022D913C918789908DE2
:102A00008217930758F06091A3027091A4028091FD
:102A1000A3029091A402675E7F4F18D4809149026F
:102A200069E0482F50E0649F9001659F300D1124AC
:102A3000F901E158FD4F9081911102C08150F1CF11
:102A4000A181B28112966D917C91139772836183FB
:102A50002E573D4F6217730721F42581368132834B
:102A6000218399E0949FF001959FF00D1124E15886
:102A7000FD4F0180F281E02D268137813093A40241
:102A80002093A302809349028091A3029091A40213
:102A90000895CF93DF93EB016091A3027091A4029C
:102AA000645F7F4F0CD461E0CE01DF91CF919CCB6E
:102AB0000F931F93CF93DF93FC018B01A181B28110
:102AC0008091A3029091A402EC01BF87AE87809110
:102AD000A3029091A40214962D913C911597EC01BC
:102AE000398B288B2091A3023091A40214968D91EA
:102AF0009C911597245F3F4FEC013B832A832091E3
:102B0000A3023091A402245F3F4F15963C932E936D
:102B10001497A091A302B091A4025596FC93EE9352
:102B2000549790819F5F9083442311F00FEF1FEF24
:102B3000642FC801DF91CF911F910F9155CBCF9397
:102B4000DF93DC011596ED91FC9116970680F781D5
:102B5000E02DA489B5898685978520893189EC0186
:102B60003D832C83C089D1899B838A83CF010C96B6
:102B700011962D913C9112972817390721F412963E
:102B8000DC93CE931197158A148A2C9121502C93A3
:102B900020913E0221114FC0A285B3858481958189
:102BA00026813781EC013D832C83C681D7819B83AD
:102BB0008A839F012E5F3F4F11968D919C911297B2
:102BC0008217930721F41296DC93CE931197138604
:102BD00012868C9181508C93A689809149028A1724
:102BE00010F4A093490289E08A9FD0011124A158D2
:102BF000BD4F11960D90BC91A02DB583A483149662
:102C00004D915C911597578346831496CD91DC9135
:102C100015973B832A8315963C932E931497A68988
:102C20008A9FD0011124A158BD4FB387A2878C91F0
:102C30008F5F8C931FC0A0916102B0916202B78731
:102C4000A68714962D913C911597318B208B149665
:102C5000CD91DC9115979B838A8315969C938E93D7
:102C6000149780E692E0958B848B809160028F5F51
:102C700080936002A091A302B091A4029689569617
:102C80008C91891720F481E08093450201C080E097
:102C9000DF91CF91089520914402FC01208320917F
:102CA0004A0230914B02328321830895CF93DF9300
:102CB0000FB6F8940F9240914A0250914B02DB01FB
:102CC0002D913C912F3FBFEF3B07D9F0EC01E981FB
:102CD000FA81A0914402B881BA1741F04E175F07FC
:102CE00028F0FB011182108281E00CC04E1B5F0BAB
:102CF00042175307B0F7FB01241B350B31832083A8
:102D0000CADF80E00F900FBEDF91CF91089581E080
:102D10008093450208950F931F93CF93DF93FC0197
:102D2000892B09F46DC08689A091A302B091A402F9
:102D300056969C91891708F059C02485358537FD32
:102D40000CC0A091A302B091A40256969C9124E0DD
:102D500030E0291B31093587248729E0829FC00193
:102D6000112481589D4F2285338528173907A9F5ED
:102D7000EF018F010E5F1F4FC801D9D2E091A3026E
:102D8000F091A402E689EE8B809149028E1710F42F
:102D9000E093490289E08E9FF0011124E158FD4F34
:102DA0000180F281E02DFD83EC83248135813F8316
:102DB0002E83A481B58113961C930E9312971583CD
:102DC0000483EE898E9FF0011124E158FD4FFB87AB
:102DD000EA8780818F5F808307C0A091A302B091B2
:102DE000A40256968C91868B81E00BC0A091A30221
:102DF000B091A40281E021A556969C91291708F074
:102E000080E0DF91CF911F910F9108950F931F9351
:102E1000CF93DF93FC01892B09F451C091A596173C
:102E200008F4962F8689891709F449C022A5213014
:102E300009F045C0968B2485358537FD06C024E012
:102E400030E0291B31093587248729E0829FC001A2
:102E5000112481589D4F228533852817390779F52C
:102E6000EF018F010E5F1F4FC80161D2EE89809183
:102E700049028E1710F4E093490289E08E9FF00119
:102E80001124E158FD4F0180F281E02DFD83EC8398
:102E9000248135813F832E83A481B58113961C93B1
:102EA0000E93129715830483EE898E9FF0011124EF
:102EB000E158FD4FFB87EA8780818F5F8083DF9138
:102EC000CF911F910F9108958091A3029091A40238
:102ED000009721F0FC0122A52F5F22A708950FB6CD
:102EE000F8940F928091A9029091AA02892BD9F4AB
:102EF00088EB92E0D2D18FEA92E0CFD188EB92E0DA
:102F00009093AE028093AD028FEA92E09093AC0270
:102F10008093AB0240E065E08AE00E94380F909316
:102F2000AA028093A9020F900FBE0895FC0173833B
:102F30006283918780874617570778F0421B530BAF
:102F40008485958548175907C0F4BF016E5F7F4F90
:102F50008091AB029091AC020DC04217530718F458
:102F60006217730750F4BF016E5F7F4F8091AD020F
:102F70009091AE02A4D180E0089581E00895EF928F
:102F8000FF920F931F93CF93DF93EC018B017A0194
:102F90006C857D85600F711F9801A701CE01C6DF8A
:102FA000882349F08C859D85080F191FE889F989C8
:102FB000CE010995EDCFDF91CF911F910F91FF9039
:102FC000EF900895EF92FF920F931F93CF93DF93AB
:102FD0008C017B01E091AD02F091AE020580F6819B
:102FE000E02DC681D781CE010296A1D18A8982FFC8
:102FF00005C0A701B801CE01C2DF02C08E7F8A8B57
:10300000E889F989CE01DF91CF911F910F91FF904F
:10301000EF900994E091AD02F091AE028081882397
:1030200049F00580F681E02D6FEF7FEF808191817F
:10303000C9DFF0CF8091AB029091AC029093AE02C9
:103040008093AD02F093AC02E093AB020895CF936E
:10305000DF9300D000D01F92CDB7DEB785E0B82E49
:10306000CE0101967C01E091AD02F091AE02A0800C
:10307000AA2031F00580F681E02D0081118102C087
:1030800000E010E0C9DACEDA6C018091A5029091DF
:10309000A602C816D90618F4BDDF81E001C080E0A1
:1030A000D092A602C092A50281111FC0AA2041F0B1
:1030B000C016D10660F0C1DBB601C80183DF16C0BF
:1030C000E091AB02F091AC0241E08081811140E0DF
:1030D000B8016C197D098091A9029091AA0252D879
:1030E000ACDB811103C0EED101C0A7DBD701EB2D12
:1030F0001D92EA95E9F740E050E0B7018091A902FE
:103100009091AA020E948C0F882309F4ACCF898188
:1031100087FDF1CF0C811D81D8011A968D919C916C
:103120001B97892B19F0C801029601D17BDA6C013B
:103130008091A5029091A602C816D90608F46ADF0C
:10314000D092A602C092A502E9818E2FEE0F990BB4
:10315000AA0BBB0BFC013197E930F10560F6EC5C82
:10316000FF4FD80152968C9127C28160F801828B63
:103170002A813B8164857585620F731FA601C80192
:10318000D5DE882309F4B7CFD80152968C91529797
:1031900082FF0CC06A817B811C968D919C911D974A
:1031A000680F791FA601C801EADE03C08E7FF8010F
:1031B000828BD8015096ED91FC915197C8010995E9
:1031C0009ACF8160D80152968C9352976A817B8105
:1031D0001D967C936E931C976C0D7D1D9601A60128
:1031E000C801A4DE88CF81FD03C0C80148D083CFC9
:1031F0008E7FF801828B7FCFEF92FF920F936FDE6D
:103200008091A9029091AA02892B79F087EAE82E91
:1032100082E0F82E03E020E030E04CE550E068E981
:1032200071E087E298E19ED801C080E00F91FF90A5
:10323000EF9008950C948B0E2FEF80E792E02150D1
:1032400080409040E1F700C00000F6CF2FEF87EA02
:1032500091E6215080409040E1F700C00000F6CF99
:10326000CF93DF93EC01D8D9CE01C3D3EC01E5DADB
:10327000209709F4E1DFCE01DF91CF910895CF933C
:10328000DF93009739F0EC01C7D9CE014AD4DF9122
:10329000CF91D3CADF91CF910895FC010396928319
:1032A00081832FEF3FEF3483238396838583908739
:1032B000878310820895FC011186108608950F936C
:1032C0001F93CF93DF938C01FB01808191818F3F0E
:1032D0002FEF920721F4E801AF81B8850EC0D80125
:1032E000139612962D913C911397E90148815981CB
:1032F0008417950710F0D901F4CF12968D919C9107
:10330000139793838283EC01FD83EC83B583A483BD
:103310001396FC93EE93129711870087F801808132
:103320008F5F8083DF91CF911F910F910895CF938D
:10333000DF93FC01A085B185828193812481358151
:10334000EC013D832C83C481D5819B838A831196B4
:103350008D919C911297E817F90721F41296DC934E
:10336000CE931197118610868C9181508C93DF91AA
:10337000CF91089531E1FC013083319722E220831F
:103380003197A3E3A083319760833197708331979E
:103390001082319760E8608331971082319762E044
:1033A0006083319763E06083319764E06083319795
:1033B00065E06083319766E06083319767E0608302
:1033C000319768E06083319769E06083319760E10D
:1033D000608331973083319732E13083319733E125
:1033E0003083319734E13083319735E13083319741
:1033F00036E13083319737E13083319738E13083DC
:10340000319739E13083319730E23083319731E2BF
:10341000308331972083319723E220833197408393
:1034200031975083319726E22083319727E220831A
:10343000319728E22083319729E22083319720E3D6
:103440002083319721E3208386970895A8958EE302
:1034500090E09093C2028093C1029093C402809343
:10346000C30280E090E00E944E0EA091A302B091B2
:10347000A402CD91CDBFDD91DEBFFF91EF91DF9131
:10348000CF91BF91AF919F918F917F916F915F91FC
:103490004F913F912F911F910F91FF90EF90DF90EF
:1034A000CF90BF90AF909F908F907F906F905F90E4
:1034B0004F903F902F901F900F900FBE0F90089548
:1034C00081E008950F920FB6F8940F921F92112485
:1034D0002F923F924F925F926F927F928F929F9224
:1034E000AF92BF92CF92DF92EF92FF920F931F9312
:1034F0002F933F934F935F936F937F938F939F93FC
:10350000AF93BF93CF93DF93EF93FF93A091A30269
:10351000B091A4020DB60D920EB60D925BDAA09199
:10352000A302B091A402CD91CDBFDD91DEBFFF918A
:10353000EF91DF91CF91BF91AF919F918F917F914B
:103540006F915F914F913F912F911F910F91FF903C
:10355000EF90DF90CF90BF90AF909F908F907F9033
:103560006F905F904F903F902F901F900F900FBEE5
:103570000F900895A1E21A2EAA1BBB1BFD010DC0DE
:10358000AA1FBB1FEE1FFF1FA217B307E407F50713
:1035900020F0A21BB30BE40BF50B661F771F881FEF
:1035A000991F1A9469F760957095809590959B0185
:1035B000AC01BD01CF010895EE0FFF1F0590F491FE
:1035C000E02D09945058BB27AA270ED075C166D1AB
:1035D00030F06BD120F031F49F3F11F41EF45BC149
:1035E0000EF4E095E7FB51C1E92F77D180F3BA17CC
:1035F000620773078407950718F071F49EF58FC171
:103600000EF4E0950B2EBA2FA02D0B01B9019001FD
:103610000C01CA01A0011124FF27591B99F0593F41
:1036200050F4503E68F11A16F040A22F232F342F89
:103630004427585FF3CF469537952795A795F040D7
:103640005395C9F77EF41F16BA0B620B730B840BEC
:10365000BAF09150A1F0FF0FBB1F661F771F881FA4
:10366000C2F70EC0BA0F621F731F841F48F48795FC
:1036700077956795B795F7959E3F08F0B3CF9395EB
:10368000880F08F09927EE0F979587950895D9D060
:1036900008F481E008950CD00FC107D140F0FED0AE
:1036A00030F021F45F3F19F0F0C0511139C1F3C07F
:1036B00014D198F39923C9F35523B1F3951B550BF6
:1036C000BB27AA2762177307840738F09F5F5F4FF5
:1036D000220F331F441FAA1FA9F333D00E2E3AF036
:1036E000E0E830D091505040E695001CCAF729D050
:1036F000FE2F27D0660F771F881FBB1F261737079F
:103700004807AB07B0E809F0BB0B802DBF01FF27CE
:1037100093585F4F2AF09E3F510568F0B6C000C134
:103720005F3FECF3983EDCF3869577956795B79508
:10373000F7959F5FC9F7880F911D9695879597F923
:103740000895E1E0660F771F881FBB1F621773079C
:103750008407BA0720F0621B730B840BBA0BEE1FB1
:1037600088F7E095089504D06894B111D9C0089500
:10377000BCD088F09F5790F0B92F9927B751A0F08F
:10378000D1F0660F771F881F991F1AF0BA95C9F7F5
:1037900012C0B13081F0C3D0B1E00895C0C0672F2E
:1037A000782F8827B85F39F0B93FCCF386957795A5
:1037B0006795B395D9F73EF490958095709561958E
:1037C0007F4F8F4F9F4F0895E89409C097FB3EF4B9
:1037D00090958095709561957F4F8F4F9F4F99235E
:1037E000A9F0F92F96E9BB279395F69587957795DC
:1037F0006795B795F111F8CFFAF4BB0F11F460FF9C
:103800001BC06F5F7F4F8F4F9F4F16C0882311F0F3
:1038100096E911C0772321F09EE8872F762F05C007
:10382000662371F096E8862F70E060E02AF09A95A2
:10383000660F771F881FDAF7880F9695879597F997
:103840000895990F0008550FAA0BE0E8FEEF161631
:103850001706E807F907C0F012161306E407F50784
:1038600098F0621B730B840B950B39F40A2661F0F8
:10387000232B242B252B21F408950A2609F4A1409B
:10388000A6958FEF811D811D089597F99F6780E8A8
:1038900070E060E008959FEF80EC089500240A94A2
:1038A0001616170618060906089500240A9412161B
:1038B0001306140605060895092E0394000C11F44E
:1038C000882352F0BB0F40F4BF2B11F460FF04C0FB
:1038D0006F5F7F4F8F4F9F4F089557FD9058440F54
:1038E000551F59F05F3F71F04795880F97FB991F5F
:1038F00061F09F3F79F0879508951216130614061C
:10390000551FF2CF4695F1DF08C0161617061806A8
:10391000991FF1CF86957105610508940895E89483
:10392000BB2766277727CB0197F908950BD0C4CF23
:10393000B5DF28F0BADF18F0952309F0A6CFABCF9A
:103940001124EECFCADFA0F3959FD1F3950F50E07D
:10395000551F629FF001729FBB27F00DB11D639F41
:10396000AA27F00DB11DAA1F649F6627B00DA11DE7
:10397000661F829F2227B00DA11D621F739FB00D8D
:10398000A11D621F839FA00D611D221F749F3327FD
:10399000A00D611D231F849F600D211D822F762F96
:1039A0006A2F11249F5750408AF0E1F088234AF093
:1039B000EE0FFF1FBB1F661F771F881F91505040DF
:1039C000A9F79E3F510570F060CFAACF5F3FECF39F
:1039D000983EDCF3869577956795B795F795E795CB
:1039E0009F5FC1F7FE2B880F911D9695879597F9DC
:1039F00008950F931F93CF93DF938230910510F4B6
:103A000082E090E0E091C702F091C80220E030E04F
:103A1000A0E0B0E0309719F140815181028113811B
:103A200048175907C8F08417950769F4109731F0C3
:103A300012960C93129713961C9327C00093C702FB
:103A40001093C80222C02115310519F042175307FF
:103A500018F49A01BD01EF01DF01F801DBCF211558
:103A60003105F9F0281B390B2430310580F48A81A7
:103A70009B816115710521F0FB019383828304C052
:103A80009093C8028093C702FE01329644C0FE01A3
:103A9000E20FF31F819391932250310939832883D8
:103AA0003AC02091C5023091C602232B41F42091E7
:103AB0003301309134013093C6022093C502209126
:103AC0003101309132012115310541F42DB73EB756
:103AD0004091350150913601241B350BE091C50210
:103AE000F091C602E217F307A0F42E1B3F0B281734
:103AF000390778F0AC014E5F5F4F2417350748F067
:103B00004E0F5F1F5093C6024093C502819391935D
:103B100002C0E0E0F0E0CF01DF91CF911F910F9163
:103B20000895CF93DF93009709F481C0FC01329789
:103B300013821282A091C702B091C802109781F43B
:103B400020813181820F931F2091C5023091C602DE
:103B50002817390751F5F093C602E093C50267C0F4
:103B6000ED0120E030E0CE17DF0740F44A815B81B1
:103B70009E0141155105F1F0EA01F5CFD383C283CF
:103B800040815181840F951FC817D90759F4888146
:103B90009981840F951F0296918380838A819B81EE
:103BA000938382832115310529F4F093C802E093B1
:103BB000C7023DC0E901FB83EA8349915991C40FD3
:103BC000D51FEC17FD0761F480819181840F951F4B
:103BD0000296E90199838883828193819B838A83FA
:103BE000E0E0F0E012968D919C911397009719F008
:103BF000FD01DC01F7CF8D919C9111979D012E5F06
:103C00003F4F820F931F2091C5023091C6022817A3
:103C1000390769F4309729F41092C8021092C7024C
:103C200002C013821282B093C602A093C502DF9134
:103C3000CF910895A0E0B0E0EFE1FEE10CC2EC010D
:103C4000009719F4CB01D5DEB0C0FC01E60FF71FD9
:103C50009C0122503109E217F30708F4A4C0D901EE
:103C60000D911C91119706171707A8F00530110543
:103C700008F497C0C80104978617970708F491C005
:103C800002501109061B170B019311936D937C933E
:103C9000CF0147DF86C05B01A01AB10A4C01800E3C
:103CA000911EA091C702B091C802612C712CE12C29
:103CB000F12C109709F446C08D919C911197A8158D
:103CC000B905B1F56C0142E0C40ED11CCA14DB0485
:103CD00078F14C018A189B08640142E0C40ED11CA3
:103CE0001296BC9012971396AC91B5E0CB16D10406
:103CF00040F0B282A38391828082D9016D937C933C
:103D000009C00E5F1F4F800F911FF90191838083BF
:103D1000EB2DFA2FE114F10431F0D7011396FC9347
:103D2000EE9312973EC0F093C802E093C70239C0E9
:103D30006816790608F43C017D0112960D90BC913D
:103D4000A02DB7CF8091C5029091C6028816990622
:103D5000E1F466167706C8F4809131019091320142
:103D6000009741F48DB79EB74091350150913601CF
:103D7000841B950BE817F907B0F4F093C602E093A3
:103D8000C502F901718360830CC0CB0132DE7C0176
:103D9000009749F0A801BE014AD0CE01C2DEC7019A
:103DA00004C0CE0102C080E090E0CDB7DEB7EEE007
:103DB0006EC11F93FC0199278827BC01E8941191DB
:103DC0001032E9F3193010F01E30C8F31B3249F0FD
:103DD0001D3241F4689405C0CED0610F711D811D64
:103DE000911D119110531A30B8F33EF490958095BF
:103DF000709561957F4F8F4F9F4F1F91089591113F
:103E000013C1803219F089508550D0F7089591116F
:103E1000089581548A5108F4805E855A089591115D
:103E2000089581568A5108F4805285580895FB01FF
:103E3000DC0102C001900D9241505040D8F7089526
:103E4000DC0101C06D9341505040E0F70895FB0143
:103E5000DC010D900020E9F7119701900D920020F0
:103E6000E1F70895FC018191861721F08823D9F7A5
:103E7000992708953197CF010895FB01DC018D91B9
:103E8000019080190110D9F3990B0895FB01DC0111
:103E900001900D920020E1F70895FB01DC014150F3
:103EA000504030F08D910190801919F40020B9F73D
:103EB000881B990B0895FB01DC014150504048F0EC
:103EC00001900D920020C9F701C01D924150504051
:103ED000E0F70895FC0181E090E00190061609F4F6
:103EE000CF010020D1F701970895FB01519155238F
:103EF000A9F0BF01DC014D9145174111E1F759F4DB
:103F0000CD010190002049F04D9140154111C9F3B8
:103F1000FB014111EFCF81E090E001970895453218
:103F2000510518F4423008F004C0FB011082CB01A7
:103F30000895BB274A3031F4992322F4BDE29095CD
:103F400081959F4F59C02532310518F4223008F071
:103F500004C0FA011082CA010895BB272A3051F427
:103F6000992342F4BDE290958095709561957F4FBD
:103F70008F4F9F4F20C0592F482F372F262F660F66
:103F8000771F881F991F660F771F881F991F620F61
:103F9000731F841F951F660F771F881F991F089531
:103FA0002532310518F4223008F004C0FA011082DD
:103FB000CA010895BB27FA01A62F62177105810572
:103FC0009105330B30FB66F0AA27660F771F881F19
:103FD000991FAA1FA21710F0A21B63953850A9F7CA
:103FE000A05DAA3308F0A95DA19336F7B111B19392
:103FF0001082CA011CC0BB27FB015527AA27880FC6
:10400000991FAA1FA41710F0A41B83955051B9F74C
:10401000A05DAA3308F0A95DA193009779F7B111CB
:10402000B1931192CB0103C0992788270895DC0131
:10403000FC01672F71917723E1F7329704C07C91DF
:104040006D9370836291AE17BF07C8F308952F92E6
:104050003F924F925F926F927F928F929F92AF9218
:10406000BF92CF92DF92EF92FF920F931F93CF9365
:10407000DF93CDB7DEB7CA1BDB0B0FB6F894DEBFFC
:104080000FBECDBF09942A88398848885F846E8422
:104090007D848C849B84AA84B984C884DF80EE806C
:1040A000FD800C811B81AA81B981CE0FD11D0FB675
:1040B000F894DEBF0FBECDBFED010895F894FFCF99
:1040C00000000000030250026802A801D301B901F8
:1040D000F701000000004F0E500268024F0E4F0E15
:1040E0004F0E4F0E2E00000000004F0E50026802CF
:1040F000000000C90220000353656D6170686F7293
:104100006520697320676976656E005461736B4C36
:1041100065646F6E205265636569766564205365DA
:104120006D6170686F7265005461736B4C65646F8C
:1041300066662052656365697665642053656D61C6
:1041400070686F7265004C65646F6E004C65646FDB
:1041500066660049444C4500546D722053766300F6
:00000001FF
